:100000006F00800A00000000A4000000A4000000AF
:1000100000000000000000000000000000000000E0
:1000200000000000000000000000000000000000D0
:10003000A400000000000000A40000000000000078
:10004000A4000000A4000000A4000000A400000020
:10005000A4000000A4000000A4000000A400000010
:10006000A4000000A4000000A4000000A400000000
:10007000A4000000A4000000A4000000A4000000F0
:10008000A4000000A4000000A4000000A8050000D7
:10009000A4000000A4000000A4000000A4000000D0
:1000A000A400000001A001009701002093810178C5
:1000B0001381817C172500001305C5419705002099
:1000C000938545F417060020130646F663FAC5002B
:1000D0008322050023A0550011059105E3EAC5FE22
:1000E00017050020130585F4938501606377B5003B
:1000F000232005001105E36DB5FE89629382028815
:10010000739002308D427390428097020000938278
:1001100062EF93E2320073905230EF00F02C9702BE
:1001200000009382822A7390123473002030010001
:0401300000000000CB
:10013400634E050263C305042E86AA857D5515C248
:1001440085466378B6006356C00006068606E36CEF
:10015400B6FE014563E4C500918D558D8582058207
:10016400F5FA82808682C93F2E8582823305A040BB
:100174006347B000B305B040C1B7B305B040868251
:10018400653F3305A0408282868263C705006349C8
:1001940005005D372E858282B305B040E35B05FE22
:1001A4003305A040513F3305B040828200002A83CA
:1001B40009CA83830500230073007D1605038505A2
:1001C4006DFA828015C22A8385466367B500FD56A1
:1001D4001307F6FF3A93BA9583830500230073004F
:1001E4007D163693B6956DFA82802A8311C6230054
:1001F400B3007D16050365FE82808280511126C0FE
:1002040089650547938585361385418606C422C2D0
:1002140023A8E188EF2080061DC109639306C33635
:10022400130610039385C18413854186EF20A00A29
:10023400096319E913854186EF20200F0545A24083
:1002440012448244310182801384C1847828418B12
:1002540071D714241307E002E382E6FC03A70189A3
:10026400050723A8E1885DBF511126C08965B7043D
:10027400002022C2938505371385040406C423A2F3
:100284000184EF10B07F05C90967B7050020930604
:100294004737130610029385850213850404EF2063
:1002A4008003096711ED13850404EF20000803A5FA
:1002B40041843325A000A24012448244310182804B
:1002C40083A74184850723A2F184C1B7511126C0B5
:1002D40006C422C223AAA188896419E91385843635
:1002E400EF10906D3DC11244A24082443101ADBF74
:1002F4002A849385843613854186EF10307831C57E
:1003040009639306C336130610039385C1841385CA
:100314004186EF10507C15C99387C184F42B09637F
:10032400C18AE5D294279307E002E38CF6FC7D149E
:1003340069F813854186EF10507F13858436EF10DA
:10034400B06701C51385418561BFA2401244824450
:10035400014531018280511126C08965B70400200E
:1003640022C223A4A1842A84938505371385040417
:1003740006C4EF10B07021C18967B70500209386C9
:100384004737130610029385850213850404EF1082
:10039400907415C17D148967E35104FE1385040428
:1003A400EF10B0781244A2408244370500201305B0
:1003B4000503310131ABA2401244824401453101AD
:1003C4008280056531111305853806C822C626C406
:1003D400EF00700C370701405C47B70600F9FD16C3
:1003E400F58FB7060004D58F5CC75C478176FD1690
:1003F400F58F5CC72945EF00100A012CEF009069C6
:10040400EF10102501CDDD3B814483A7018963DA18
:10041400F4022685653D3DE98504C5BF1305401FEB
:10042400EF007007F1BF850783A64184E3D6D7FEAA
:100434003E853EC00D3782477DD503A74184E3DD69
:10044400E7FC83A70189E38D97FAAD24A547630FE1
:10045400F50A63EFA70289476302F5068D47E316A1
:10046400F5FE83A741848507635FF00403A74184F5
:1004740003A6818401457D176304C7001305160094
:100484003EC0D13D824771F1FD17F9BF814769BF75
:10049400A947E31CF5FA83A7018985076355F00290
:1004A40003A741891305F7FF01E703A501897D151A
:1004B4003EC0293D824729E9FD17CDB783A7418472
:1004C40085076344F000D1F325BF83A68184138597
:1004D400F6FF81E603A541847D153EC0AD3D82470C
:1004E4002DF5FD17F9BF050703A64184E356C7FCA4
:1004F4003A853EC23AC08535024792476DD583A6F8
:100504004184E35BD7FA91B70147F9BF83A7018917
:100514008507E35AF0FA03A7018983A641890145B7
:100524007D176304D700138516003EC04533824708
:1005340005E5FD17F9BF050703A64184E35BC7FE84
:100544003A853EC23AC0013D024792476DD583A623
:100554004184E350D7FED5BD0147F9BFA1673E955D
:10056400930700443305F502B70700209387070C6F
:1005740005663E961303B04441818326868983250C
:10058400C689138716006353E3000147E307B7FEE8
:100594008606B6978AA3B71700209387070C23AC67
:1005A400E7888280B7370140938707C0984BB70626
:1005B40000209386060C799B98CB05673697832594
:1005C40087898327C789371600200357078A1306AC
:1005D400060C6380F50213971700BA969A228507D2
:1005E4009306B0442310E68A63D3F6008147232E92
:1005F400F688B73601408567938606C093870788D7
:1006040098DE998FDCDE73002030511122C2370549
:10061400002005641306448A81451305050C06C4AD
:1006240026C0E136B7170240984F1367170098CFDA
:10063400984F1367470098CFA54505456526A545FE
:1006440009454D26B7060140DC4671771307F73F8D
:10065400F98F096713070740D98FB7340140DCC607
:100664000147854793060488138504C005468945D8
:10067400C925938704C013040488C0DFD84FA2405F
:1006840012441377F7F813670706D8CFD84F82447C
:1006940013678700D8CF98531367071098D3D847A8
:1006A40013671700D8C7B7E700E0214723A2E71074
:1006B40031018280411126C206C622C49387C11328
:1006C400983B1384C11309C70395C700413DFDB787
:1006D4008317A4006345F004B12A2AC0A12A8247E3
:1006E4002205AA975EA4B92268A4A9221E24A307FE
:1006F40004003EA43E240315C400FD173EA4B93DE6
:100704001C40584085071CC063D5E70083C7813867
:10071400D5D7B240224492440D45410182807C34B5
:10072400D1CF082811817C348306E40093B71700E5
:100734007CB48967139716009387C737BA970397D2
:100744000700896793870743AA979C23B69713F6F4
:10075400F70F93068005E207E18763F6C60063C3DB
:100764000706930780057CA49376150093573740BA
:1007740081C693562740B6979376250091C6935623
:100784001740B697C207C1879376450081C6BA97CA
:10079400C207C187218909C5B307F040C207C187D1
:1007A4000317C400BA97617763D3E700E177216741
:1007B40063C4E7009307F7FF5EA42DBFA52808A82C
:1007C4003D8995B7814745B751119387011583A595
:1007D400472026C083A4072022C206C48D8C13841C
:1007E4000115635790002686A29513850115D93A01
:1007F4009307002033869740B30594001385813511
:100804002320942023220420EF10700B03270420BC
:10081400930700203A956359A0002320A420A24006
:1008240012448244310182802320F4208547230C22
:10083400F422F5B7511122C21387011583274720EB
:100844000327072006C41384011563CAE700AD3FDC
:100854008327442003270420014563D8E700330796
:10086400F400082385072322F420A2401244310116
:100874008280511106C422C226C06353050001457B
:100884009387C113DC431384C1136344F5001385B8
:10089400F7FF83148400A685EFF09F8993870115E1
:1008A400B384A40203976723839547232315040085
:1008B400A24023A0072023A207203307A70204C0D5
:1008C40012448244138581353101BA956F10101496
:1008D400211126C6AA851385813506CA22C8EF10C0
:1008E400407719E50145D2404244B2446101828017
:1008F400938701151306002093850115138581350F
:10090400238C0722EF10A07B1307F01F9387011598
:10091400E35AA7FC822BF2331387811531043A94EE
:100924001387C11312A7A945130340061305100624
:10093400930200201820631E67001830631BA70071
:1009440083432400130740076395E30038306309A9
:10095400A702583083434400220733677700834358
:100964006400C203B3E3E3007830620733677700BF
:1009740021073A943307F440E3C6E2F6FD15DDF9A6
:1009840032C44C3058206430A205D98D7820E2045A
:1009940042074D8F8E33458F3A85239BB7223AC049
:1009A4002EC2EFF0EFF822469245B304C502024589
:1009B400EFF08FFD0D46938701159386C11363589D
:1009C400A6007115138714000605B304E50021047D
:1009D4001D8C0145C4C2A3880600239A8722513D79
:1009E400054511B7B70710001357354093872704FF
:1009F4003E972A0793767500104313952600BD474A
:100A0400B397A70093C7F7FFF18F13F6F5003316DA
:100A1400A600D18F1CC39307700263DBB7000545A2
:100A2400930780023315D5006393F500420508CB84
:100A34008280371702405C43511122C289833704F4
:100A4400002006C426C08D8B8546130404006388E9
:100A5400D70489466387D7040840B714024048C4C2
:100A6400D8408967938787470D83798BBA978E23FC
:100A7400EFF08FEC08C8D8408967938787452D83AA
:100A84007D8BBA978C23DC4063C307008545EFF068
:100A9400AFEAA24048C812448244310182804840EF
:100AA4006DBF5C43C183858B81E70840060575B73C
:100AB4004840EDBF372702401C43511106C4F19B47
:100AC40093E727001CC3371702401C4393E7170022
:100AD4001CC3B71702409843098B75DFD843719B39
:100AE400D8C3B7170240D84309830D8B6DFFD84391
:100AF400B70600F9FD16758FD8C39843B706F7FEFD
:100B0400FD16758F98C39843B706FCFFFD16758FC5
:100B140098C39847F9769386F60F758F98C79847C8
:100B2400B7069D00558F98C7D843C176FD16137735
:100B3400F7F0D8C3D843758FD8C39843B7060001DC
:100B4400558F98C3B7060002371702401C43F58F30
:100B5400F5DF5C43B7160240F19B93E727005CC3C3
:100B64000947DC4289838D8BE39DE7FE8967938681
:100B740007442D47938707442146EC2A6375B60042
:100B84007D17F9167DFB0607B7160240BA97D042C7
:100B94009C3341771307F77F718FAE07D98FDCC27F
:100BA400DC4286078583DCC26935B707002093875A
:100BB40007009C4B37C78C011307F7A78946636A64
:100BC400F70037B7120113070788B3B7E70093C6D6
:100BD4001700372702401C43A240F19BD58F1CC34A
:100BE40031018280511122C237140240585006C488
:100BF40023A6E13826C07D3D5C4893E747005CC8E6
:100C04001C4C0D6713075783D98F1CCC5C4C3707DA
:100C14000010D98F5CCC096489640D201304044D41
:100C24009384044D636894001244A24082443101C9
:100C34006FF0AFDC1C4011048297EDB7B7F700E00A
:100C44009843799B98C39843759B98C398431367BB
:100C5400470098C398430607058398C3196723A4DC
:100C640007001307F7DB98CBD843799BD8C3984385
:100C74005D9B98C323A8013898431367170098C352
:100C84008280B7F700E09847B7F600E09C46998F5A
:100C9400E3EEA7FE8280B167938707B83305F502B8
:100CA400B7F700E09847B7F600E09C46998FE3EE6B
:100CB400A7FE8280B7370140938707C06312F5020D
:100CC400B7170240D847856693860680558FD8C7E4
:100CD4000100D847FD769386F67F758FD8C782804A
:100CE400B7070040E31DF5FEB7170240984B1367A2
:100CF400170098CB0100984B799B98CBCDB7B737A9
:100D04000140938707C0631BF500B71602409C4E51
:100D1400056713070780D98F9CCE8280B7070040F0
:100D2400E31DF5FE371702405C4F93E717005CCFD5
:100D3400EDB7111132C636C43AC23EC006CC22CA3F
:100D440026C82A84AE84653F2285AD370C443246DA
:100D5400A246E1990CC47D1610D454D414408247A1
:100D64001247BD9A14C0144093B71700990793E62D
:100D7400060814C08D466381D40A63C99602854669
:100D8400638AD40489466387D4067C402167E240A1
:100D9400D98F7CC05C48C24493E717005CC81C40F0
:100DA40093E717001CC05244710182809146E39E70
:100DB400D4FC38C0584CE576FD16758FB207D98F30
:100DC4005CCC5C4C056793060780D58F5CCC1C50CB
:100DD400D98F39A858D8184C92071377F7F8D98FB8
:100DE4001CCC1C4C93E787001CCC1C5093E71700C9
:100DF4001CD061BF18DC184CE576FD16758FB20760
:100E0400D98F1CCC1C4C056713070780D98F1CCCC9
:100E14001C5093E70701E9BF58DC584C920713773D
:100E2400F7F8D98F5CCC5C4C93E787005CCC1C5002
:100E340093E7071075BF37170140A1460145930595
:100E440007400943114623A865000100060510CB9D
:100E54001375F50F1C47FD1650CB8583858B5D8D6F
:100E6400FDF28280411122C426C206C6AA87A1448B
:100E740001441397870161870946634407003706D5
:100E840002003717014093050740860790C993F77E
:100E9400F70F0100114610CB370700200325870107
:100EA4006355A0003EC0F13B824706041374F40F5F
:100EB4003716014018460583058B598C114758CACB
:100EC40037070020032587016355A0003EC0553B2A
:100ED4008247FD14D9FCB240228522449244410148
:100EE4008280511106C4B7170140414798CB1305BE
:100EF400F00F8D3F1305F00FB537A2401305F00F27
:100F040031018DB7B71701404147D8CB1305F00F16
:100F140091BF51119317850122C226C006C4E187EF
:100F2400AA842E8463DB0700814513057003D5373B
:100F3400854763E8A70693F4F4071305F00F1D37FC
:100F44001305F00F05371305F00F293F13E50404CB
:100F5400113F135584013937135504011375F50FE7
:100F64001137135584001375F50FED3D1375F40F08
:100F7400D53D1305500981C8A14713057008638442
:100F8400F4001305F00FF93D29441305F00FD93D82
:100F940093178501E18763D607007D141374F40F5A
:100FA4006DF4A2401244824431018280311122C680
:100FB400930700063707002026C406C8238A013891
:100FC400232CF700D144313FFD141305F00F93F4A3
:100FD400F40F493DF5F83D37930740068145014537
:100FE4003EC2053F2AC005476309E5009247FD1745
:100FF40093F7F70FE5F7F535F5A082479305A01AA7
:101004002145238AF138313711893DE51305F00F65
:10101400913D1305F00FB9351305F00FA1352AC220
:101024001305F00F8135024792476397E70493074E
:10103400A00A6313F5048D47238AF138F9473EC2A9
:1010440083C741390D47B70500406387E700094767
:10105400814505456394E7001305900A5D3D0589C4
:101064000DC929450D399247FD1793F7F70F3EC275
:10107400E1FB238A013841B703C741398547E31FA0
:10108400F7FA81451305900A6935118945F98947AD
:1010940065B703C741398D47631BF70281451305C3
:1010A400A003853D854763E4A7021305F00F5D3B6C
:1010B4001375050401C59147238AF1381305F00F10
:1010C40055331305F00F793B1305F00F613B93057E
:1010D400002041453D3D31358244E147370700203A
:1010E400232CF700C24032442685A2445101828059
:1010F4004111BD6722C426C206C6AA842E849387E2
:1011040007A63EC00D3B9306F00F2A87631BD5004C
:101114008247FD17FDF70145B24022449244410144
:1011240082809307E00F0145E318F7FE814763CA05
:1011340087001305F00F3D331305F00F25330545E4
:10114400E1BF3EC0CD3982473387F40008A3850749
:10115400F9BF5111B70700201307000606C423ACDA
:10116400E7004D331305F00FF5391305F00FDD39A2
:10117400A2401305F00F3101F5B1511106C49533A6
:101184001305F00FC5311305F00FE9391305F00FFE
:10119400D139A2401305F00F3101E9B1411126C242
:1011A40003C7413906C622C42EC01DC32A8455373D
:1011B400370700208D46232CD70003C741399147B8
:1011C4006303F7002604A2854545A13301C9113BF9
:1011D4000145B24022449244410182800245930574
:1011E400002039372AC0513F0245E5B703C74139CA
:1011F40045C3511122C226C006C42A84AE84913F3D
:1012040037070020E146232CD70003C74139914713
:101214006303F7002604A2856145E53901C9D1318C
:101224000145A24012448244310182803D6413048A
:1012340004A61305F00F3D319307F00F6305F50085
:101244007D1465F8E9BF1305E00F29390144B3871C
:10125400840088230504393193070020E319F4FE40
:101264001305F00F01311305F00F3D64E53E13043F
:1012740004A61305F00FFD369307F00F6304F50081
:101284007D1465F81305F00FF13EC53D054551BFCA
:1012940001458280B7170240984F511106C422C2FB
:1012A4001367070198CF984F1367070298CF9305E8
:1012B40080044545EFF00FF337140140C1471CC8C3
:1012C40085455145EFF00FF291475CC88545494586
:1012D400EFF04FF11304044089475CC81244A24064
:1012E4008545654531016FF0EFEF854763F7A7004A
:1012F40083A7013E3335F5008280014582808967EA
:101304008A0593878749AE9790439546814733076B
:10131400F600182309CBB305F5008C216397E5008B
:101324008507E396D7FE054582800145828003C781
:10133400D13F19E305458280511126C0B70400202E
:1013440003A5040222C29385014006C4A38E013E74
:10135400713D05C983C7C13F85C703A7C13D03A527
:10136400040283A7413DB307F54063FBE70083C64E
:10137400B13F89476396F600938501403A95BD35A0
:101384000545A2401244824431018280511126C095
:10139400B704002083A7040206C422C26398A700EE
:1013A4000545A24012448244310182802A84413797
:1013B40009C9938501402285D53311E5FD5723A042
:1013C400F4020145F9BF23A08402D9BF511122C2FE
:1013D40006C42A84193F09CD03C5A13F79143305F6
:1013E400850283A7C13C3E95A2401244310182800C
:1013F4000145DDBF411122C406C626C22A84F53543
:1014040001CD83C7C13F09476387E7060D4763835F
:10141400E70805476388E7007D55B24022449244BB
:101424004101828083A7413D93541400A29413D5B3
:1014340094003E95A13F6DD113F7F41F93870140AB
:1014440083A6413D3E971823850413D59400369511
:101454003AC02D3F71D193F4F41F93870140A697AE
:101464008823024705882205598D19C0118175B753
:10147400520551815DB783A7413D0604135594007D
:101484003E95293751D91374F41F938701403E9434
:101494000A2061B783A7413D0A04135594003E9581
:1014A400F5353DD91374F41F938701403E940840E9
:1014B40012056DBF411122C426C206C62A84AE8419
:1014C4002D3501CD83C7C13F09476384E70A0D4722
:1014D4006380E70C05476388E7000145B240224476
:1014E40092444101828003A7413D93571400A2977F
:1014F40013D597003A953EC0513D65D18247137785
:10150400140013F3F71F13F6F40F9386014009CB6D
:1015140033856600082112063D89498E1376F60F3D
:1015240013841700369383A7413D05452300C30068
:10153400A38EA13E135594003E953AC0813D51DDE2
:101544009386014002479377F41F01CF13D74400D9
:101554001377F70FBE9698A20547A38EE13E054583
:10156400B5BF3387F6001823A180BD88419B458F02
:10157400D5B783A7413D0604135594003E953935EC
:1015840029DD1374F41F938701403E9406A0E9B744
:1015940083A7413D0A04135594003E95C53B15DDD0
:1015A400938701401374F41F3E941840B70700F06A
:1015B4009204F98F9180C58F1CC079BF411126C256
:1015C40006C622C4AA8429E983A7C13E03A7813E93
:1015D40089CF83A6013E63FAD70011EB0144B240E0
:1015E40022852244924441018280854765DB3E8402
:1015F40083A6013E05046366D4008546E3F0F6FE47
:10160400094422853EC0FD3351C1FD56630DD5000A
:101614008247E31FF4FCD9B7F13B1307E5FFF15709
:101624002A8463F4E7007D545DBF83A7013EE36829
:10163400F5FA03A7813E5DD313841400636EF400AE
:1016440009454D3BFD57E300F5FE09EDFD55094500
:10165400953509441DE5C1BF2285693BFD57E30467
:10166400F5FC19C983A7C13E3E853EC0EFF0FFC714
:10167400824735FDA687A5BF75DCFD5522851D3D36
:101684005DD1A28526853D3519E571BFFD552285BD
:10169400153551D9FDF423A6813E83A6413E83A787
:1016A400813E63FBF600370700208347C70193E7B9
:1016B4001700230EF70025B7FDD7FD1723A4F13E2D
:1016C400DDB7411122C406C626C22A84EFF03FC604
:1016D40019E50145B24022449244410182802285A9
:1016E400EFF0DFCE2A8475D5B707002023A0A70228
:1016F40013060020814513850140EFE01FAF83C727
:10170400A13F99E30545F9B79385014022853EC081
:10171400EFF0DFAD5DDD82470504FD1793F7F70FAA
:10172400CDB72324050293F7F50189CB01458280C7
:101734000145B240224492444101828041115C4DF2
:1017440022C426C206C60CD1AA842E8489CF83A6BD
:10175400013F3E856377D4043EC0EFF03FC7824724
:1017640015A0BA87EDB783C6C13F0D476395E60060
:1017740003A7013D7DF703D7813F1607E37AE4FA17
:1017840003A5013D88D44DD5DCD093579400AA9786
:101794009CD41374F41F938701403E94C0C4054540
:1017A40049BFEFF03FC52AC0EFF03FB451D183A643
:1017B400013F8247158C61BF1C51311126C49384AB
:1017C400070293F7F41F22C606C83EC02A84BDEB65
:1017D4001855050718D5485111ED03D7813F160751
:1017E40063E2E406232404020145C2403244A244D5
:1017F4005101828003C7A13F93D694007D17758F52
:1018040031E32EC2EFF01FBF1306E5FFF1569245F8
:101814002A87E3EBC6FC83A6013E6360D50223243A
:101824000402F9D14850593B1306F5FF2AC2F55674
:10183400E3ECC6FA7935124745D958D03A85EFF02A
:10184400FFB808D482471387014004D0B384E7006B
:1018540044C4054559BF3C3D342D2A87A20733E5CE
:10186400D70083C6C13F8D476398F6005C3B542B79
:10187400A207D58FC2075D8D8280511122C226C076
:1018840006C42A8493C4F5FF085419C5EFF01FB0A9
:1018940011C55C44982309EB232404020145A240AA
:1018A4001244824431018280BC379306500E93F770
:1018B400F7036304D700E58F91C781452285ED3D89
:1018C40061F5E9BF0545E1BF5111814522C206C456
:1018D4002A84813D19C9085419C5EFF03FAB11C5DD
:1018E4004C449C2181EB232404020145A240124470
:1018F40031018280BC3513F7F70338B4A18B91E72B
:101904002D462285EF00B02309C5814522856D351A
:10191400D1B70545E1BF23840500A38A05001C5502
:10192400D5C35845814701462D4513030002A14202
:10193400B28613F6F60F631DA60499CBB386F500A1
:10194400F0329306E0026315D600FD1793F7F70F04
:10195400B386F50023840600DCB95C3F542F0545AB
:10196400A207D58F742FC206DD8E7C3FE207D58F88
:101974009CC17C3B742BA207D58FDEA11C3F142F86
:10198400A207D58FFEA13C3793F7F703FCA9828009
:101994003306D70010226308660093831700AE97BE
:1019A40090A793F7F30F850613F6F60FE31356F893
:1019B400938617009303E002AE972384770093F78E
:1019C400F60FBDB7014582809307F5F993F7F70F3A
:1019D40065476365F70001151375F50F828018419B
:1019E400AA870823050798C39307F5F993F7F70F18
:1019F40065476365F70001151375F50F82802111A2
:101A040006CA22C826C618212AC49307E002631C0A
:101A1400F7009C216399E70000311307E002631784
:101A2400F404202115C88144014428002EC0453FF8
:101A34008245AA87338785000823A9E31307000298
:101A440085476308E500214781476314E40085471F
:101A5400858F13F5F70F31A09C318144E397E7FCA0
:101A64000545D2404244B244610182804DFC983124
:101A740093070002E306F7FE814445BF3EC22EC031
:101A8400A13792471307F00382456384E700639DFF
:101A9400A7009D4763F38700C9D805041374F40FA6
:101AA400AD47E314F4F86DBF1307E0026389E70060
:101AB4001307A0026398E700C5F42144BDB721448D
:101AC4008544A5B7014571BF9307A00763ECA7043C
:101AD4009307000663EBA7049307C00363E6A7021A
:101AE4009307900263E7A700FD4763EEA700014553
:101AF40019A8B7070500130765FD93871702B3D725
:101B0400E700858BEDF782809307F00363E7A70076
:101B14009307D003E309F5FED9BF9307C005E31487
:101B2400F5FEF1B79307C007DDBF01151375F50F77
:101B34008280211122C82D462E849305000226C6D8
:101B440006CAAA84EFE06FEA1C4093062002982399
:101B5400630ED7029306E002630CD7028146014765
:101B64001306C0059305E002130320028823FD43F6
:101B740063FEA3049303F002850763047500631AEC
:101B8400C5041306F0029306C00525A88507C1B74E
:101B94000147FD45130520021306E002094394237F
:101BA40063F6D5028507E38CA6FE6398C606630E2A
:101BB400670693061700269710A313F7F60FC5B709
:101BC40085079823E30EC7FEE30CD7FE1CC005452A
:101BD400B1A86316B500B1EA8546214741BFE307C2
:101BE40065F836C43EC23AC0C53521C102479D429C
:101BF4009247A2461306C0059305E0021303200290
:101C040063F6E200A5D6A943E3E2E3F693031700E3
:101C1400269708A313F7F30F91BF1307F002E38786
:101C2400E6FA1307C005E383E6FA0145D2404244CD
:101C3400B24461018280411122C406C626C22A84AC
:101C44002EC0014713062002AE869C2185056383BE
:101C5400C70211C336C01307F0026386E7001307F7
:101C6400C005639AE704824701479305F00213060F
:101C7400C00529A00547C9BF850705479423E38DFF
:101C8400B6FEE38BC6FE11C33EC081475CCC8247DF
:101C9400930440069823FD4763E2E70281452285C9
:101CA400EFF03FA89307000915ED0145B240224427
:101CB40092444101828083A7813CC9BF8A852285E1
:101CC4008D3D65D52285EFF03FC082477D479C233B
:101CD40009EDE36CF7FC18209307E002E307F7FC37
:101CE4009307F00F3CB40545D1B7637DF7003C344E
:101CF400C18BC5DF4844FD1493F4F40FEFF0BFB576
:101D040048CCCDFC3335900055B7511106C422C2DE
:101D1400EFF0CFE7914569C19387014003D7E71FEF
:101D2400AD67938757A51384014091456316F70A5D
:101D340013856143EFF0AFDC01E98D45138521453F
:101D4400EFF0EFDBAA8549C95C2438348145A2074A
:101D5400D98F130700206391E708762899E254503D
:101D6400A5CE1828054681459307F7FF93F7F70F8B
:101D74006364F6064C34ADC19387F5FFED8FB5E38C
:101D8400104813558600931705013D89C18331E935
:101D9400482861822205518D11E10850722431C214
:101DA4003307D7029183B297BA97636CF5021D8DFE
:101DB4006369B502EFE04FB8B7070010D517814546
:101DC40063ECA700C167E1178D4563E7A70085654C
:101DD400D515B3B5A5008505A24012442E85310161
:101DE40082808145D5BFFD57370700202320F702A5
:101DF400A38E013E238E013E894637070020230E21
:101E0400D700A38D013E238D013E239C013E23AACE
:101E1400013E23A8013E23A6F13E23A4F13E23A2C2
:101E2400013E23A0013E23AE013C23AC013C23AA86
:101E3400013C23A8013C23A6013C23A4013C23A28A
:101E4400013C9387813923AE070023A407028280D3
:101E54001301C1FC06D822D626D47137EFF00F95B2
:101E640001E90145C2503254A25413014103828056
:101E74000145613D9147AA84E305F5FE814635E5B8
:101E840020084165938501402286014793860140DD
:101E94007D15114383C2251C8147638D020093077E
:101EA400B7019207B69783D267019C4FE98FC207A7
:101EB400B3E757001CC20507C1051106E31C67FC04
:101EC40013070401144099CE36853AC236C0353D15
:101ED4009307F5FF93F7F70F094682461247AA8442
:101EE4006375F6001104E31F87FC9387F4FF93F7EF
:101EF400F70F0947E367F7F693870140F22B138442
:101F0400014011E25050034304014C3423AEC13C60
:101F1400A38D613E238DB13E1397950023A8E13E26
:101F24001C483303C30213D7870042074183239C11
:101F3400E13E4828E18322055D8D11E1085083527A
:101F4400E40023AAA13E9357470096979A971D8DC4
:101F540032CA36C83AC616C41AC23EC0EFE0CF9D94
:101F6400C246A24223A2A13E8247090523A0A13E64
:101F740023ACD13CB692B69723AA513C23A6F13C9C
:101F84008D471243324752466391F40AE31B07EC30
:101F9400585423A8E13C8345340478409317250022
:101FA40022074D8F9387F71F23A2E13CA583E36AA1
:101FB400F6EAFD57894523A4F13E23A6F13EB7076F
:101FC4000020238EB7008D45639DB4040A388545EF
:101FD4006319B50413851600EFF04FBB39C1B70779
:101FE40000201440238E0700B757614193872725AB
:101FF4006399F6028326441EB777416193872727A6
:102004006391F6028356E41FAD67938757A5639ADD
:10201400F6008327841E23A4F13E8327C41E23A62F
:10202400F13E238E913E054535BDE30C07E29A92BD
:1020340023A8513C05476388E400931715008345A2
:1020440074021854B1BFB307F50205898583AA97B2
:10205400FDB783C7C13F511122C206C426C02A84DA
:1020640089EB230004000145A2401244824431015B
:10207400828065D9EFF03FBC6DD53C341307F00F77
:10208400E381E7FEC18BF1FFB7070020444483A737
:10209400070226851CC8EFF00FFC48CCDC3CD82C8A
:1020A4000545A207D98FF82C42075D8FFC3C2324F9
:1020B400040223200402E207D98F1CCC75B7111146
:1020C40022CA06CC26C82EC2014405C11821AA84FE
:1020D400014401CF1C4D1851998F3EC06373F60023
:1020E40032C0014482476368F400E24022855244CE
:1020F400C2447101828098509376F71FC1E683C66B
:10210400A13F13569700FD16B3F7C6003EC491EBEA
:1021140021EBD84C3A853AC6EFF02F9D79D532475A
:10212400D8D0C850EFF08FAA69D1A2471307F01F87
:10213400AA973EC48247338687406378C702924594
:102144002245EFF0AF8555D113060020A2479CD459
:10215400924798503294B29732973EC298D059B76A
:10216400C850EFF02FA92A8775B7224532C6EFF081
:10217400EFA125DD3246124593850140EFE02F8320
:102184003246E9B7824713070020158F338687400C
:102194006373C7003A86885432C4EFF02F9F31D559
:1021A4009850224612451377F71F93850140BA953C
:1021B400EFD0FFFF224669BF83C7C13F81EB0145D2
:1021C40082800145A240124431018280511122C211
:1021D400AA851385813906C4EFF0FFA57DD19387C5
:1021E4008139B8379306F00FE30DD7FC93760701D6
:1021F400E9DA930600096317D700C84F23A4A13C6A
:102204000545C9B7C847EFF00FE5CDBF09E901455A
:1022140082800145B24022449244410182804111AE
:1022240026C206C622C41C21AA84E5D71C4D63F32A
:10223400F500AE8798506305F70223A404029CD0EE
:1022440085C31384F7FFDC4C83A6013F637CD40071
:10225400DCD03E85EFF08F9793579400AA979CD4D7
:1022640005454DBF3E85EFF0EF982AC0EFF0EF87AC
:102274004DD183A6013F8247158CF9B783C7C13F6F
:10228400511122C206C42A8481EB230004000145B3
:10229400A2401244310182806DD9EFF0DF9975D5E7
:1022A4003C341307F00FE382E7FE13F7070171DFF5
:1022B40013070009638DE7004844EFF0CFD948CCF9
:1022C40081452285EFF0EFC569D10545D1B7930764
:1022D400E0021CA0F5B7311122C626C406C82A8420
:1022E400AE8432C036C21C549DCF82452285EFF0A5
:1022F400CFD815C94C441245EFF06FF005C1A6853F
:102304002285EFF04FE105C181452285EFF0CFCA68
:102314000545C2403244A244510182808145228550
:10232400EFF08FC9C9B70145EDB7AA8719C50821D0
:1023340011C523800700054582800145828001473D
:102344006314E60001458280B307E5000507B38600
:10235400E5009C2383C6F6FFE384D7FE3385D7408C
:10236400828000002F0000002A2E000000000000E0
:102374002A2E5741560000000700080009000A00F1
:102384000B000C000D000E001000110013001500CE
:10239400170019001C001F002200250029002D0031
:1023A400320037003C0042004900500058006100F0
:1023B4006B00760082008F009D00AD00BE00D1004E
:1023C400E600FD0017013301510173019801C101B9
:1023D400EE01200256029202D4021C036C03C303D2
:1023E40024048E04020583051006AB065607120862
:1023F400E008C309BD0AD00BFF0C4C0EBA0F4C11F8
:102404000713EE1406175419DC1BA51EB621152557
:10241400CA28DF2C5B314B36B93BB24144487E4F6E
:1024240071572F60CE696274FF7F0000FFFFFFFFCA
:1024340002040608FFFFFFFF02040608020004046A
:10244400061008050C141006181520073016400F46
:102454006017801F0202020204081020040404040E
:1024640008102040060606060C1830600808080804
:102474001020408001000200030004000500060053
:1024840007000800020004000800100020004000BB
:1024940080000001C8240000C0240000B82400000B
:1024A400B0240000AC24000046415400464154339B
:1024B4003200000046415431360000004641543198
:0C24C400320000006E6F6E65000000002A
:1024D00000366E0100366E0100F4010000366E0118
:1024E00000127A0000093D006000000002000000B8
:0824F000FFFFFFFF00000000E8
:00000001FF
